:100000000C947A000C9484000C9484000C9484006A
:100010000C9484000C9484000C9484000C94840050
:100020000C9484000C9484000C9484000C94840040
:100030000C9484000C9484000C9484000C94840030
:100040000C9484000C9484000C9484000C94840020
:100050000C948A000C9484000C9484000C9484000A
:100060000C9484000C9484000C9484000C94840000
:100070000C9484000C9484000C9484000C948400F0
:100080000C9484000C9484000C9484000C948400E0
:100090000C9484000C9484000C9484000C948400D0
:1000A0000C9484000C9484000C9484000C948400C0
:1000B0000C9484000C9484000C9484000C948400B0
:1000C0000C9484000C9484000C9484000C948400A0
:1000D0000C9484000C9484000C9484000C94840090
:1000E0000C9484000C9484000C9484000C94840080
:1000F0000C94840011241FBECFEFCDBFDFE7DEBF1D
:100100000E9486000C94D2000C94000078940E9407
:10011000B700FFCF1F920F920FB60F9211240BB6AC
:100120000F922F933F934F935F936F937F938F9390
:100130009F93AF93BF93EF93FF930E94C40090E807
:10014000909343090E94CB00FF91EF91BF91AF9133
:100150009F918F917F916F915F914F913F912F91DF
:100160000F900BBE0F900FBE0F901F90189580ED53
:1001700080930004E0E4F9E081E2808380E88183F9
:1001800081E8828313820895809143098823E4F7EC
:100190008091440908959091840895FFFCCF809345
:0801A00082080895F894FFCFD6
:00000001FF
